{
  "contractName": "MarebitsPresale",
  "abi": [
    {
      "inputs": [
        {
          "internalType": "uint256",
          "name": "rate",
          "type": "uint256"
        },
        {
          "internalType": "address payable",
          "name": "wallet",
          "type": "address"
        },
        {
          "internalType": "contract IERC20",
          "name": "token",
          "type": "address"
        },
        {
          "internalType": "uint256",
          "name": "cap",
          "type": "uint256"
        },
        {
          "internalType": "uint256",
          "name": "openingTime",
          "type": "uint256"
        },
        {
          "internalType": "uint256",
          "name": "closingTime",
          "type": "uint256"
        },
        {
          "internalType": "uint256",
          "name": "minPurchase",
          "type": "uint256"
        }
      ],
      "payable": false,
      "stateMutability": "nonpayable",
      "type": "constructor"
    },
    {
      "anonymous": false,
      "inputs": [
        {
          "indexed": true,
          "internalType": "address",
          "name": "previousOwner",
          "type": "address"
        },
        {
          "indexed": true,
          "internalType": "address",
          "name": "newOwner",
          "type": "address"
        }
      ],
      "name": "OwnershipTransferred",
      "type": "event"
    },
    {
      "anonymous": false,
      "inputs": [],
      "name": "PresaleFinalized",
      "type": "event"
    },
    {
      "anonymous": false,
      "inputs": [
        {
          "indexed": false,
          "internalType": "uint256",
          "name": "prevClosingTime",
          "type": "uint256"
        },
        {
          "indexed": false,
          "internalType": "uint256",
          "name": "newClosingTime",
          "type": "uint256"
        }
      ],
      "name": "TimedCrowdsaleExtended",
      "type": "event"
    },
    {
      "anonymous": false,
      "inputs": [
        {
          "indexed": true,
          "internalType": "address",
          "name": "purchaser",
          "type": "address"
        },
        {
          "indexed": true,
          "internalType": "address",
          "name": "beneficiary",
          "type": "address"
        },
        {
          "indexed": false,
          "internalType": "uint256",
          "name": "value",
          "type": "uint256"
        },
        {
          "indexed": false,
          "internalType": "uint256",
          "name": "amount",
          "type": "uint256"
        }
      ],
      "name": "TokensPurchased",
      "type": "event"
    },
    {
      "payable": true,
      "stateMutability": "payable",
      "type": "fallback"
    },
    {
      "constant": true,
      "inputs": [
        {
          "internalType": "address",
          "name": "account",
          "type": "address"
        }
      ],
      "name": "balanceOf",
      "outputs": [
        {
          "internalType": "uint256",
          "name": "",
          "type": "uint256"
        }
      ],
      "payable": false,
      "stateMutability": "view",
      "type": "function"
    },
    {
      "constant": false,
      "inputs": [
        {
          "internalType": "address",
          "name": "beneficiary",
          "type": "address"
        }
      ],
      "name": "buyTokens",
      "outputs": [],
      "payable": true,
      "stateMutability": "payable",
      "type": "function"
    },
    {
      "constant": true,
      "inputs": [],
      "name": "cap",
      "outputs": [
        {
          "internalType": "uint256",
          "name": "",
          "type": "uint256"
        }
      ],
      "payable": false,
      "stateMutability": "view",
      "type": "function"
    },
    {
      "constant": true,
      "inputs": [],
      "name": "capReached",
      "outputs": [
        {
          "internalType": "bool",
          "name": "",
          "type": "bool"
        }
      ],
      "payable": false,
      "stateMutability": "view",
      "type": "function"
    },
    {
      "constant": true,
      "inputs": [],
      "name": "closingTime",
      "outputs": [
        {
          "internalType": "uint256",
          "name": "",
          "type": "uint256"
        }
      ],
      "payable": false,
      "stateMutability": "view",
      "type": "function"
    },
    {
      "constant": true,
      "inputs": [],
      "name": "hasClosed",
      "outputs": [
        {
          "internalType": "bool",
          "name": "",
          "type": "bool"
        }
      ],
      "payable": false,
      "stateMutability": "view",
      "type": "function"
    },
    {
      "constant": true,
      "inputs": [],
      "name": "isOpen",
      "outputs": [
        {
          "internalType": "bool",
          "name": "",
          "type": "bool"
        }
      ],
      "payable": false,
      "stateMutability": "view",
      "type": "function"
    },
    {
      "constant": true,
      "inputs": [],
      "name": "isOwner",
      "outputs": [
        {
          "internalType": "bool",
          "name": "",
          "type": "bool"
        }
      ],
      "payable": false,
      "stateMutability": "view",
      "type": "function"
    },
    {
      "constant": true,
      "inputs": [],
      "name": "openingTime",
      "outputs": [
        {
          "internalType": "uint256",
          "name": "",
          "type": "uint256"
        }
      ],
      "payable": false,
      "stateMutability": "view",
      "type": "function"
    },
    {
      "constant": true,
      "inputs": [],
      "name": "owner",
      "outputs": [
        {
          "internalType": "address",
          "name": "",
          "type": "address"
        }
      ],
      "payable": false,
      "stateMutability": "view",
      "type": "function"
    },
    {
      "constant": true,
      "inputs": [],
      "name": "rate",
      "outputs": [
        {
          "internalType": "uint256",
          "name": "",
          "type": "uint256"
        }
      ],
      "payable": false,
      "stateMutability": "view",
      "type": "function"
    },
    {
      "constant": false,
      "inputs": [],
      "name": "renounceOwnership",
      "outputs": [],
      "payable": false,
      "stateMutability": "nonpayable",
      "type": "function"
    },
    {
      "constant": true,
      "inputs": [],
      "name": "token",
      "outputs": [
        {
          "internalType": "contract IERC20",
          "name": "",
          "type": "address"
        }
      ],
      "payable": false,
      "stateMutability": "view",
      "type": "function"
    },
    {
      "constant": false,
      "inputs": [
        {
          "internalType": "address",
          "name": "newOwner",
          "type": "address"
        }
      ],
      "name": "transferOwnership",
      "outputs": [],
      "payable": false,
      "stateMutability": "nonpayable",
      "type": "function"
    },
    {
      "constant": true,
      "inputs": [],
      "name": "weiRaised",
      "outputs": [
        {
          "internalType": "uint256",
          "name": "",
          "type": "uint256"
        }
      ],
      "payable": false,
      "stateMutability": "view",
      "type": "function"
    },
    {
      "constant": false,
      "inputs": [
        {
          "internalType": "address",
          "name": "beneficiary",
          "type": "address"
        }
      ],
      "name": "withdrawTokens",
      "outputs": [],
      "payable": false,
      "stateMutability": "nonpayable",
      "type": "function"
    },
    {
      "constant": true,
      "inputs": [],
      "name": "bestPony",
      "outputs": [
        {
          "internalType": "string",
          "name": "",
          "type": "string"
        }
      ],
      "payable": false,
      "stateMutability": "pure",
      "type": "function"
    },
    {
      "constant": false,
      "inputs": [],
      "name": "finalize",
      "outputs": [],
      "payable": false,
      "stateMutability": "nonpayable",
      "type": "function"
    },
    {
      "constant": true,
      "inputs": [],
      "name": "isFinalized",
      "outputs": [
        {
          "internalType": "bool",
          "name": "",
          "type": "bool"
        }
      ],
      "payable": false,
      "stateMutability": "view",
      "type": "function"
    },
    {
      "constant": true,
      "inputs": [],
      "name": "minPurchase",
      "outputs": [
        {
          "internalType": "uint256",
          "name": "",
          "type": "uint256"
        }
      ],
      "payable": false,
      "stateMutability": "view",
      "type": "function"
    },
    {
      "constant": true,
      "inputs": [],
      "name": "wallet",
      "outputs": [
        {
          "internalType": "address payable",
          "name": "",
          "type": "address"
        }
      ],
      "payable": false,
      "stateMutability": "view",
      "type": "function"
    },
    {
      "constant": false,
      "inputs": [
        {
          "internalType": "address",
          "name": "tokenContract",
          "type": "address"
        }
      ],
      "name": "withdrawContractTokens",
      "outputs": [],
      "payable": false,
      "stateMutability": "nonpayable",
      "type": "function"
    }
  ],
  "bytecode": "0x60806040523480156200001157600080fd5b506040516200295038038062002950833981810160405260e08110156200003757600080fd5b810190808051906020019092919080519060200190929190805190602001909291908051906020019092919080519060200190929190805190602001909291908051906020019092919050505082828589898960006200009c6200054760201b60201c565b9050806000806101000a81548173ffffffffffffffffffffffffffffffffffffffff021916908373ffffffffffffffffffffffffffffffffffffffff1602179055508073ffffffffffffffffffffffffffffffffffffffff16600073ffffffffffffffffffffffffffffffffffffffff167f8be0079c531659141344cd1fd0a4f28419497f9722a3daafe3b4186f6b6457e060405160405180910390a3506001600060146101000a81548160ff02191690831515021790555060008311620001cc576040517f08c379a00000000000000000000000000000000000000000000000000000000081526004018080602001828103825260148152602001807f43726f776473616c653a2072617465206973203000000000000000000000000081525060200191505060405180910390fd5b600073ffffffffffffffffffffffffffffffffffffffff168273ffffffffffffffffffffffffffffffffffffffff16141562000254576040517f08c379a00000000000000000000000000000000000000000000000000000000081526004018080602001828103825260258152602001806200292b6025913960400191505060405180910390fd5b600073ffffffffffffffffffffffffffffffffffffffff168173ffffffffffffffffffffffffffffffffffffffff161415620002dc576040517f08c379a0000000000000000000000000000000000000000000000000000000008152600401808060200182810382526024815260200180620029076024913960400191505060405180910390fd5b8260038190555081600260006101000a81548173ffffffffffffffffffffffffffffffffffffffff021916908373ffffffffffffffffffffffffffffffffffffffff16021790555080600160006101000a81548173ffffffffffffffffffffffffffffffffffffffff021916908373ffffffffffffffffffffffffffffffffffffffff16021790555050505060008111620003df576040517f08c379a00000000000000000000000000000000000000000000000000000000081526004018080602001828103825260198152602001807f43617070656443726f776473616c653a2063617020697320300000000000000081525060200191505060405180910390fd5b80600581905550504282101562000442576040517f08c379a00000000000000000000000000000000000000000000000000000000081526004018080602001828103825260338152602001806200289d6033913960400191505060405180910390fd5b8181116200049c576040517f08c379a0000000000000000000000000000000000000000000000000000000008152600401808060200182810382526037815260200180620028d06037913960400191505060405180910390fd5b81600681905550806007819055505050604051620004ba906200054f565b604051809103906000f080158015620004d7573d6000803e3d6000fd5b50600960006101000a81548173ffffffffffffffffffffffffffffffffffffffff021916908373ffffffffffffffffffffffffffffffffffffffff1602179055506000600960146101000a81548160ff02191690831515021790555080600a81905550505050505050506200055d565b600033905090565b610620806200227d83390190565b611d10806200056d6000396000f3fe6080604052600436106101355760003560e01c8063521eb273116100ab5780638f32d59b1161006f5780638f32d59b146104fc578063b7a8807c1461052b578063ec8ac4d814610556578063f2fde38b1461059a578063fc0c546a146105eb578063fd7611c71461064257610135565b8063521eb273146103a357806370a08231146103fa578063715018a61461045f5780638d4e4083146104765780638da5cb5b146104a557610135565b80634042b66f116100fd5780634042b66f1461028757806347535d7b146102b257806349df728c146102e15780634b6753bc146103325780634bb278f31461035d5780634f9359451461037457610135565b80631515bc2b1461014757806319511a7a146101765780632c4e722e1461020657806333b5b62e14610231578063355274ea1461025c575b610145610140610693565b61069b565b005b34801561015357600080fd5b5061015c610828565b604051808215151515815260200191505060405180910390f35b34801561018257600080fd5b5061018b610834565b6040518080602001828103825283818151815260200191508051906020019080838360005b838110156101cb5780820151818401526020810190506101b0565b50505050905090810190601f1680156101f85780820380516001836020036101000a031916815260200191505b509250505060405180910390f35b34801561021257600080fd5b5061021b610854565b6040518082815260200191505060405180910390f35b34801561023d57600080fd5b5061024661085e565b6040518082815260200191505060405180910390f35b34801561026857600080fd5b50610271610868565b6040518082815260200191505060405180910390f35b34801561029357600080fd5b5061029c610872565b6040518082815260200191505060405180910390f35b3480156102be57600080fd5b506102c761087c565b604051808215151515815260200191505060405180910390f35b3480156102ed57600080fd5b506103306004803603602081101561030457600080fd5b81019080803573ffffffffffffffffffffffffffffffffffffffff169060200190929190505050610897565b005b34801561033e57600080fd5b50610347610ad6565b6040518082815260200191505060405180910390f35b34801561036957600080fd5b50610372610ae0565b005b34801561038057600080fd5b50610389610ce1565b604051808215151515815260200191505060405180910390f35b3480156103af57600080fd5b506103b8610cf5565b604051808273ffffffffffffffffffffffffffffffffffffffff1673ffffffffffffffffffffffffffffffffffffffff16815260200191505060405180910390f35b34801561040657600080fd5b506104496004803603602081101561041d57600080fd5b81019080803573ffffffffffffffffffffffffffffffffffffffff169060200190929190505050610d04565b6040518082815260200191505060405180910390f35b34801561046b57600080fd5b50610474610d4d565b005b34801561048257600080fd5b5061048b610e86565b604051808215151515815260200191505060405180910390f35b3480156104b157600080fd5b506104ba610e9d565b604051808273ffffffffffffffffffffffffffffffffffffffff1673ffffffffffffffffffffffffffffffffffffffff16815260200191505060405180910390f35b34801561050857600080fd5b50610511610ec6565b604051808215151515815260200191505060405180910390f35b34801561053757600080fd5b50610540610f24565b6040518082815260200191505060405180910390f35b6105986004803603602081101561056c57600080fd5b81019080803573ffffffffffffffffffffffffffffffffffffffff16906020019092919050505061069b565b005b3480156105a657600080fd5b506105e9600480360360208110156105bd57600080fd5b81019080803573ffffffffffffffffffffffffffffffffffffffff169060200190929190505050610f2e565b005b3480156105f757600080fd5b50610600610fb4565b604051808273ffffffffffffffffffffffffffffffffffffffff1673ffffffffffffffffffffffffffffffffffffffff16815260200191505060405180910390f35b34801561064e57600080fd5b506106916004803603602081101561066557600080fd5b81019080803573ffffffffffffffffffffffffffffffffffffffff169060200190929190505050610fde565b005b600033905090565b600060149054906101000a900460ff1661071d576040517f08c379a000000000000000000000000000000000000000000000000000000000815260040180806020018281038252601f8152602001807f5265656e7472616e637947756172643a207265656e7472616e742063616c6c0081525060200191505060405180910390fd5b60008060146101000a81548160ff0219169083151502179055506000349050610746828261114a565b600061075182611219565b90506107688260045461123790919063ffffffff16565b60048190555061077883826112bf565b8273ffffffffffffffffffffffffffffffffffffffff16610797610693565b73ffffffffffffffffffffffffffffffffffffffff167f6faf93231a456e552dbc9961f58d9713ee4f2e69d15f1975b050ef0911053a7b8484604051808381526020018281526020019250505060405180910390a36107f68383611384565b6107fe611388565b610808838361138a565b50506001600060146101000a81548160ff02191690831515021790555050565b60006007544211905090565b60606040518060600160405280603f8152602001611c28603f9139905090565b6000600354905090565b6000600a54905090565b6000600554905090565b6000600454905090565b6000600654421015801561089257506007544211155b905090565b61089f610828565b6108f4576040517f08c379a0000000000000000000000000000000000000000000000000000000008152600401808060200182810382526021815260200180611c916021913960400191505060405180910390fd5b6000600860008373ffffffffffffffffffffffffffffffffffffffff1673ffffffffffffffffffffffffffffffffffffffff16815260200190815260200160002054905060008111610991576040517f08c379a0000000000000000000000000000000000000000000000000000000008152600401808060200182810382526038815260200180611bcf6038913960400191505060405180910390fd5b6000600860008473ffffffffffffffffffffffffffffffffffffffff1673ffffffffffffffffffffffffffffffffffffffff16815260200190815260200160002081905550600960009054906101000a900473ffffffffffffffffffffffffffffffffffffffff1673ffffffffffffffffffffffffffffffffffffffff1663beabacc8610a1c610fb4565b84846040518463ffffffff1660e01b8152600401808473ffffffffffffffffffffffffffffffffffffffff1673ffffffffffffffffffffffffffffffffffffffff1681526020018373ffffffffffffffffffffffffffffffffffffffff1673ffffffffffffffffffffffffffffffffffffffff1681526020018281526020019350505050600060405180830381600087803b158015610aba57600080fd5b505af1158015610ace573d6000803e3d6000fd5b505050505050565b6000600754905090565b610ae8610ec6565b610b5a576040517f08c379a00000000000000000000000000000000000000000000000000000000081526004018080602001828103825260208152602001807f4f776e61626c653a2063616c6c6572206973206e6f7420746865206f776e657281525060200191505060405180910390fd5b600960149054906101000a900460ff1615610bc0576040517f08c379a0000000000000000000000000000000000000000000000000000000008152600401808060200182810382526022815260200180611bad6022913960400191505060405180910390fd5b610bc8610828565b610c3a576040517f08c379a000000000000000000000000000000000000000000000000000000000815260040180806020018281038252601b8152602001807f4d6172656269747350726573616c653a206e6f7420636c6f736564000000000081525060200191505060405180910390fd5b610c4a610c45610fb4565b610fde565b610c52610cf5565b73ffffffffffffffffffffffffffffffffffffffff166108fc479081150290604051600060405180830381858888f19350505050158015610c97573d6000803e3d6000fd5b506001600960146101000a81548160ff0219169083151502179055507fdfde24045163396568fc4949540f6eef33c6e50388fde3b24239eac71131cf6e60405160405180910390a1565b6000600554610cee610872565b1015905090565b6000610cff610e9d565b905090565b6000600860008373ffffffffffffffffffffffffffffffffffffffff1673ffffffffffffffffffffffffffffffffffffffff168152602001908152602001600020549050919050565b610d55610ec6565b610dc7576040517f08c379a00000000000000000000000000000000000000000000000000000000081526004018080602001828103825260208152602001807f4f776e61626c653a2063616c6c6572206973206e6f7420746865206f776e657281525060200191505060405180910390fd5b600073ffffffffffffffffffffffffffffffffffffffff166000809054906101000a900473ffffffffffffffffffffffffffffffffffffffff1673ffffffffffffffffffffffffffffffffffffffff167f8be0079c531659141344cd1fd0a4f28419497f9722a3daafe3b4186f6b6457e060405160405180910390a360008060006101000a81548173ffffffffffffffffffffffffffffffffffffffff021916908373ffffffffffffffffffffffffffffffffffffffff160217905550565b6000600960149054906101000a900460ff16905090565b60008060009054906101000a900473ffffffffffffffffffffffffffffffffffffffff16905090565b60008060009054906101000a900473ffffffffffffffffffffffffffffffffffffffff1673ffffffffffffffffffffffffffffffffffffffff16610f08610693565b73ffffffffffffffffffffffffffffffffffffffff1614905090565b6000600654905090565b610f36610ec6565b610fa8576040517f08c379a00000000000000000000000000000000000000000000000000000000081526004018080602001828103825260208152602001807f4f776e61626c653a2063616c6c6572206973206e6f7420746865206f776e657281525060200191505060405180910390fd5b610fb18161138e565b50565b6000600160009054906101000a900473ffffffffffffffffffffffffffffffffffffffff16905090565b610fe6610ec6565b611058576040517f08c379a00000000000000000000000000000000000000000000000000000000081526004018080602001828103825260208152602001807f4f776e61626c653a2063616c6c6572206973206e6f7420746865206f776e657281525060200191505060405180910390fd5b6000819050611146611068610cf5565b8273ffffffffffffffffffffffffffffffffffffffff166370a08231306040518263ffffffff1660e01b8152600401808273ffffffffffffffffffffffffffffffffffffffff1673ffffffffffffffffffffffffffffffffffffffff16815260200191505060206040518083038186803b1580156110e557600080fd5b505afa1580156110f9573d6000803e3d6000fd5b505050506040513d602081101561110f57600080fd5b81019080805190602001909291905050508373ffffffffffffffffffffffffffffffffffffffff166114d29092919063ffffffff16565b5050565b600960149054906101000a900460ff16156111b0576040517f08c379a0000000000000000000000000000000000000000000000000000000008152600401808060200182810382526022815260200180611bad6022913960400191505060405180910390fd5b6111ba82826115a3565b600a54811015611215576040517f08c379a000000000000000000000000000000000000000000000000000000000815260040180806020018281038252604e815260200180611b5f604e913960600191505060405180910390fd5b5050565b60006112306003548361162b90919063ffffffff16565b9050919050565b6000808284019050838110156112b5576040517f08c379a000000000000000000000000000000000000000000000000000000000815260040180806020018281038252601b8152602001807f536166654d6174683a206164646974696f6e206f766572666c6f77000000000081525060200191505060405180910390fd5b8091505092915050565b61131181600860008573ffffffffffffffffffffffffffffffffffffffff1673ffffffffffffffffffffffffffffffffffffffff1681526020019081526020016000205461123790919063ffffffff16565b600860008473ffffffffffffffffffffffffffffffffffffffff1673ffffffffffffffffffffffffffffffffffffffff16815260200190815260200160002081905550611380600960009054906101000a900473ffffffffffffffffffffffffffffffffffffffff16826116b1565b5050565b5050565b565b5050565b600073ffffffffffffffffffffffffffffffffffffffff168173ffffffffffffffffffffffffffffffffffffffff161415611414576040517f08c379a0000000000000000000000000000000000000000000000000000000008152600401808060200182810382526026815260200180611b396026913960400191505060405180910390fd5b8073ffffffffffffffffffffffffffffffffffffffff166000809054906101000a900473ffffffffffffffffffffffffffffffffffffffff1673ffffffffffffffffffffffffffffffffffffffff167f8be0079c531659141344cd1fd0a4f28419497f9722a3daafe3b4186f6b6457e060405160405180910390a3806000806101000a81548173ffffffffffffffffffffffffffffffffffffffff021916908373ffffffffffffffffffffffffffffffffffffffff16021790555050565b61159e838473ffffffffffffffffffffffffffffffffffffffff1663a9059cbb905060e01b8484604051602401808373ffffffffffffffffffffffffffffffffffffffff1673ffffffffffffffffffffffffffffffffffffffff16815260200182815260200192505050604051602081830303815290604052907bffffffffffffffffffffffffffffffffffffffffffffffffffffffff19166020820180517bffffffffffffffffffffffffffffffffffffffffffffffffffffffff8381831617835250505050611702565b505050565b6115ab61087c565b61161d576040517f08c379a00000000000000000000000000000000000000000000000000000000081526004018080602001828103825260188152602001807f54696d656443726f776473616c653a206e6f74206f70656e000000000000000081525060200191505060405180910390fd5b611627828261194d565b5050565b60008083141561163e57600090506116ab565b600082840290508284828161164f57fe5b04146116a6576040517f08c379a0000000000000000000000000000000000000000000000000000000008152600401808060200182810382526021815260200180611c076021913960400191505060405180910390fd5b809150505b92915050565b6116fe8282600160009054906101000a900473ffffffffffffffffffffffffffffffffffffffff1673ffffffffffffffffffffffffffffffffffffffff166114d29092919063ffffffff16565b5050565b6117218273ffffffffffffffffffffffffffffffffffffffff166119ec565b611793576040517f08c379a000000000000000000000000000000000000000000000000000000000815260040180806020018281038252601f8152602001807f5361666545524332303a2063616c6c20746f206e6f6e2d636f6e74726163740081525060200191505060405180910390fd5b600060608373ffffffffffffffffffffffffffffffffffffffff16836040518082805190602001908083835b602083106117e257805182526020820191506020810190506020830392506117bf565b6001836020036101000a0380198251168184511680821785525050505050509050019150506000604051808303816000865af19150503d8060008114611844576040519150601f19603f3d011682016040523d82523d6000602084013e611849565b606091505b5091509150816118c1576040517f08c379a00000000000000000000000000000000000000000000000000000000081526004018080602001828103825260208152602001807f5361666545524332303a206c6f772d6c6576656c2063616c6c206661696c656481525060200191505060405180910390fd5b600081511115611947578080602001905160208110156118e057600080fd5b8101908080519060200190929190505050611946576040517f08c379a000000000000000000000000000000000000000000000000000000000815260040180806020018281038252602a815260200180611cb2602a913960400191505060405180910390fd5b5b50505050565b6119578282611a37565b60055461197482611966610872565b61123790919063ffffffff16565b11156119e8576040517f08c379a000000000000000000000000000000000000000000000000000000000815260040180806020018281038252601d8152602001807f43617070656443726f776473616c653a2063617020657863656564656400000081525060200191505060405180910390fd5b5050565b60008060007fc5d2460186f7233c927e7db2dcc703c0e500b653ca82273b7bfad8045d85a47060001b9050833f9150808214158015611a2e57506000801b8214155b92505050919050565b600073ffffffffffffffffffffffffffffffffffffffff168273ffffffffffffffffffffffffffffffffffffffff161415611abd576040517f08c379a000000000000000000000000000000000000000000000000000000000815260040180806020018281038252602a815260200180611c67602a913960400191505060405180910390fd5b6000811415611b34576040517f08c379a00000000000000000000000000000000000000000000000000000000081526004018080602001828103825260198152602001807f43726f776473616c653a20776569416d6f756e7420697320300000000000000081525060200191505060405180910390fd5b505056fe4f776e61626c653a206e6577206f776e657220697320746865207a65726f20616464726573734d6172656269747350726573616c653a2073616c6520616d6f756e74206d7573742062652067726561746572207468616e206f7220657175616c20746f206d696e696d756d2070757263686173654d6172656269747350726573616c653a20616c72656164792066696e616c697a6564506f737444656c697665727943726f776473616c653a2062656e6566696369617279206973206e6f742064756520616e7920746f6b656e73536166654d6174683a206d756c7469706c69636174696f6e206f766572666c6f775477696c6967687420537061726b6c6520697320746865206375746573742c20736d6172746573742c20616c6c2061726f756e64206265737420706f6e792143726f776473616c653a2062656e656669636961727920697320746865207a65726f2061646472657373506f737444656c697665727943726f776473616c653a206e6f7420636c6f7365645361666545524332303a204552433230206f7065726174696f6e20646964206e6f742073756363656564a265627a7a723158207309a7ab81936334f99c058474ac825c5e8cd75b19997ade76bdc791cbdf60d664736f6c63430005100032608060405260006100146100bf60201b60201c565b9050806000806101000a81548173ffffffffffffffffffffffffffffffffffffffff021916908373ffffffffffffffffffffffffffffffffffffffff1602179055507f4101e71e974f68df5e9730cc223280b41654676bbb052cdcc735c3337e64d2d981604051808273ffffffffffffffffffffffffffffffffffffffff1673ffffffffffffffffffffffffffffffffffffffff16815260200191505060405180910390a1506100c7565b600033905090565b61054a806100d66000396000f3fe608060405234801561001057600080fd5b50600436106100415760003560e01c80632348238c14610046578063beabacc81461008a578063c6dbdf61146100f8575b600080fd5b6100886004803603602081101561005c57600080fd5b81019080803573ffffffffffffffffffffffffffffffffffffffff169060200190929190505050610142565b005b6100f6600480360360608110156100a057600080fd5b81019080803573ffffffffffffffffffffffffffffffffffffffff169060200190929190803573ffffffffffffffffffffffffffffffffffffffff1690602001909291908035906020019092919050505061031a565b005b61010061048e565b604051808273ffffffffffffffffffffffffffffffffffffffff1673ffffffffffffffffffffffffffffffffffffffff16815260200191505060405180910390f35b6000809054906101000a900473ffffffffffffffffffffffffffffffffffffffff1673ffffffffffffffffffffffffffffffffffffffff166101826104b7565b73ffffffffffffffffffffffffffffffffffffffff16146101ee576040517f08c379a000000000000000000000000000000000000000000000000000000000815260040180806020018281038252602c8152602001806104ea602c913960400191505060405180910390fd5b600073ffffffffffffffffffffffffffffffffffffffff168173ffffffffffffffffffffffffffffffffffffffff161415610274576040517f08c379a000000000000000000000000000000000000000000000000000000000815260040180806020018281038252602a8152602001806104c0602a913960400191505060405180910390fd5b806000806101000a81548173ffffffffffffffffffffffffffffffffffffffff021916908373ffffffffffffffffffffffffffffffffffffffff1602179055507f4101e71e974f68df5e9730cc223280b41654676bbb052cdcc735c3337e64d2d981604051808273ffffffffffffffffffffffffffffffffffffffff1673ffffffffffffffffffffffffffffffffffffffff16815260200191505060405180910390a150565b6000809054906101000a900473ffffffffffffffffffffffffffffffffffffffff1673ffffffffffffffffffffffffffffffffffffffff1661035a6104b7565b73ffffffffffffffffffffffffffffffffffffffff16146103c6576040517f08c379a000000000000000000000000000000000000000000000000000000000815260040180806020018281038252602c8152602001806104ea602c913960400191505060405180910390fd5b8273ffffffffffffffffffffffffffffffffffffffff1663a9059cbb83836040518363ffffffff1660e01b8152600401808373ffffffffffffffffffffffffffffffffffffffff1673ffffffffffffffffffffffffffffffffffffffff16815260200182815260200192505050602060405180830381600087803b15801561044d57600080fd5b505af1158015610461573d6000803e3d6000fd5b505050506040513d602081101561047757600080fd5b810190808051906020019092919050505050505050565b60008060009054906101000a900473ffffffffffffffffffffffffffffffffffffffff16905090565b60003390509056fe5365636f6e646172793a206e6577207072696d61727920697320746865207a65726f20616464726573735365636f6e646172793a2063616c6c6572206973206e6f7420746865207072696d617279206163636f756e74a265627a7a723158207654adc725a7fc795f5ba47a8642c4ad7f3e8553b466d1eb725956ccd33c886664736f6c6343000510003254696d656443726f776473616c653a206f70656e696e672074696d65206973206265666f72652063757272656e742074696d6554696d656443726f776473616c653a206f70656e696e672074696d65206973206e6f74206265666f726520636c6f73696e672074696d6543726f776473616c653a20746f6b656e20697320746865207a65726f206164647265737343726f776473616c653a2077616c6c657420697320746865207a65726f2061646472657373",
  "source": "pragma solidity >=0.4.22 <0.9.0;\n\nimport \"@openzeppelin/contracts/crowdsale/Crowdsale.sol\";\nimport \"@openzeppelin/contracts/crowdsale/validation/CappedCrowdsale.sol\";\nimport \"@openzeppelin/contracts/crowdsale/validation/TimedCrowdsale.sol\";\nimport \"@openzeppelin/contracts/crowdsale/distribution/PostDeliveryCrowdsale.sol\";\nimport \"@openzeppelin/contracts/math/SafeMath.sol\";\nimport \"@openzeppelin/contracts/ownership/Ownable.sol\";\nimport \"@openzeppelin/contracts/token/ERC20/IERC20.sol\";\n\n/**\n * @title MarebitsPresale\n * @dev Ownable, Timed, Capped, PostDelivery Crowdsale with a minimum purchase, too ^:)\n */\ncontract MarebitsPresale is Ownable, Crowdsale, CappedCrowdsale, TimedCrowdsale, PostDeliveryCrowdsale {\n\tusing SafeMath for uint256;\n\n\tbool private _isFinalized;\n\tuint256 private _minPurchase;\n\n\tevent PresaleFinalized();\n\n\t/**\n\t * @dev Constructor, takes minimum amount of wei accepted in the presale.\n\t * @param rate Amount of tokens purchased per ETH\n\t * @param minPurchase Minimum amount of wei to be contributed\n\t */\n\tconstructor(uint256 rate, address payable wallet, IERC20 token, uint256 cap, uint256 openingTime, uint256 closingTime, uint256 minPurchase) \n\t\tPostDeliveryCrowdsale() TimedCrowdsale(openingTime, closingTime) CappedCrowdsale(cap) Crowdsale(rate, wallet, token) public {\n\t\t_isFinalized = false;\n\t\t_minPurchase = minPurchase;\n\t}\n\n\t/**\n\t * @return the best pony.\n\t */\n\tfunction bestPony() public pure returns (string memory) { return \"Twilight Sparkle is the cutest, smartest, all around best pony!\"; }\n\n\t/**\n\t * @dev Must be called after presale ends, to do some extra finalization\n\t * work. Calls the contract's finalization function.\n\t */\n\tfunction finalize() public onlyOwner {\n\t\trequire(!_isFinalized, \"MarebitsPresale: already finalized\");\n\t\trequire(hasClosed(), \"MarebitsPresale: not closed\");\n\t\twithdrawContractTokens(address(token()));\n\t\twallet().transfer(address(this).balance);\n\t\t_isFinalized = true;\n\t\temit PresaleFinalized();\n\t}\n\n\t/**\n\t * @return true if the presale is finalized, false otherwise.\n\t */\n\tfunction isFinalized() public view returns (bool) { return _isFinalized; }\n\n\t/**\n\t * @return the minimum purchase of the presale.\n\t */\n\tfunction minPurchase() public view returns (uint256) { return _minPurchase; }\n\n\t/**\n\t * @return the address where funds are collected.\n\t */\n\tfunction wallet() public view returns (address payable) { return address(uint160(owner())); }\n\n\t/**\n\t * @dev Withdraw all tokens of the given type to this contract owner's wallet.\n\t * @param tokenContract The contract address of the token to withdraw\n\t */\n\tfunction withdrawContractTokens(address tokenContract) public onlyOwner {\n\t\tIERC20 token = IERC20(tokenContract);\n\t\ttoken.safeTransfer(wallet(), token.balanceOf(address(this)));\n\t}\n\n\t// temporary override for testing purposes only, remove in production!\n\t// function _deliverTokens(address beneficiary, uint256 tokenAmount) internal { token().transfer(beneficiary, tokenAmount); }\n\n\t/**\n\t * @dev Determines how ETH is stored/forwarded on purchases.\n\t */\n\tfunction _forwardFunds() internal { /* do nothing */ }\n\n\t/**\n\t * @dev Extend parent behavior requiring purchase to respect the minimum purchase.\n\t * @param beneficiary Token purchaser\n\t * @param weiAmount Amount of wei contributed\n\t */\n\tfunction _preValidatePurchase(address beneficiary, uint256 weiAmount) internal view {\n\t\trequire(!_isFinalized, \"MarebitsPresale: already finalized\");\n\t\tsuper._preValidatePurchase(beneficiary, weiAmount);\n\t\trequire(weiAmount >= _minPurchase, \"MarebitsPresale: sale amount must be greater than or equal to minimum purchase\");\n\t}\n}",
  "sourcePath": "/home/otaku/marebits-presale/contracts/MarebitsPresale.sol",
  "compiler": {
    "name": "solc",
    "version": "0.5.16+commit.9c3226ce.Emscripten.clang"
  },
  "schemaVersion": "3.4.3",
  "updatedAt": "2021-09-22T03:34:03.404Z",
  "networkType": "ethereum",
  "devdoc": {
    "details": "Ownable, Timed, Capped, PostDelivery Crowdsale with a minimum purchase, too ^:)",
    "methods": {
      "balanceOf(address)": {
        "return": "the balance of an account."
      },
      "bestPony()": {
        "return": "the best pony."
      },
      "buyTokens(address)": {
        "details": "low level token purchase ***DO NOT OVERRIDE*** This function has a non-reentrancy guard, so it shouldn't be called by another `nonReentrant` function.",
        "params": {
          "beneficiary": "Recipient of the token purchase"
        }
      },
      "cap()": {
        "return": "the cap of the crowdsale."
      },
      "capReached()": {
        "details": "Checks whether the cap has been reached.",
        "return": "Whether the cap was reached"
      },
      "closingTime()": {
        "return": "the crowdsale closing time."
      },
      "constructor": {
        "details": "Constructor, takes minimum amount of wei accepted in the presale.",
        "params": {
          "minPurchase": "Minimum amount of wei to be contributed",
          "rate": "Amount of tokens purchased per ETH"
        }
      },
      "finalize()": {
        "details": "Must be called after presale ends, to do some extra finalization work. Calls the contract's finalization function."
      },
      "hasClosed()": {
        "details": "Checks whether the period in which the crowdsale is open has already elapsed.",
        "return": "Whether crowdsale period has elapsed"
      },
      "isFinalized()": {
        "return": "true if the presale is finalized, false otherwise."
      },
      "isOpen()": {
        "return": "true if the crowdsale is open, false otherwise."
      },
      "isOwner()": {
        "details": "Returns true if the caller is the current owner."
      },
      "minPurchase()": {
        "return": "the minimum purchase of the presale."
      },
      "openingTime()": {
        "return": "the crowdsale opening time."
      },
      "owner()": {
        "details": "Returns the address of the current owner."
      },
      "rate()": {
        "return": "the number of token units a buyer gets per wei."
      },
      "renounceOwnership()": {
        "details": "Leaves the contract without owner. It will not be possible to call `onlyOwner` functions anymore. Can only be called by the current owner.     * NOTE: Renouncing ownership will leave the contract without an owner, thereby removing any functionality that is only available to the owner."
      },
      "token()": {
        "return": "the token being sold."
      },
      "transferOwnership(address)": {
        "details": "Transfers ownership of the contract to a new account (`newOwner`). Can only be called by the current owner."
      },
      "wallet()": {
        "return": "the address where funds are collected."
      },
      "weiRaised()": {
        "return": "the amount of wei raised."
      },
      "withdrawContractTokens(address)": {
        "details": "Withdraw all tokens of the given type to this contract owner's wallet.",
        "params": {
          "tokenContract": "The contract address of the token to withdraw"
        }
      },
      "withdrawTokens(address)": {
        "details": "Withdraw tokens only after crowdsale ends.",
        "params": {
          "beneficiary": "Whose tokens will be withdrawn."
        }
      }
    },
    "title": "MarebitsPresale"
  },
  "userdoc": {
    "methods": {}
  }
}